{
	"smarts/Example/Example.sol": {
		"Example": {
			"abi": [
				{
					"inputs": [],
					"name": "count",
					"outputs": [
						{
							"internalType": "uint256",
							"name": "",
							"type": "uint256"
						}
					],
					"stateMutability": "pure",
					"type": "function"
				},
				{
					"inputs": [],
					"name": "sample",
					"outputs": [],
					"stateMutability": "nonpayable",
					"type": "function"
				}
			],
			"devdoc": {
				"kind": "dev",
				"methods": {},
				"version": 1
			},
			"evm": {
				"assembly": "    /* \"smarts/Example/Example.sol\":96:916  contract Example {... */\n  mstore(0x40, 0x80)\n  callvalue\n  dup1\n  iszero\n  tag_1\n  jumpi\n  0x00\n  dup1\n  revert\ntag_1:\n  pop\n  dataSize(sub_0)\n  dup1\n  dataOffset(sub_0)\n  0x00\n  codecopy\n  0x00\n  return\nstop\n\nsub_0: assembly {\n        /* \"smarts/Example/Example.sol\":96:916  contract Example {... */\n      mstore(0x40, 0x80)\n      callvalue\n      dup1\n      iszero\n      tag_1\n      jumpi\n      0x00\n      dup1\n      revert\n    tag_1:\n      pop\n      jumpi(tag_2, lt(calldatasize, 0x04))\n      shr(0xe0, calldataload(0x00))\n      dup1\n      0x06661abd\n      eq\n      tag_3\n      jumpi\n      dup1\n      0xc9482a5d\n      eq\n      tag_4\n      jumpi\n    tag_2:\n      0x00\n      dup1\n      revert\n        /* \"smarts/Example/Example.sol\":735:906  function count() public pure returns (uint) {... */\n    tag_3:\n      tag_5\n      tag_6\n      jump\t// in\n    tag_5:\n      mload(0x40)\n      tag_7\n      swap2\n      swap1\n      tag_8\n      jump\t// in\n    tag_7:\n      mload(0x40)\n      dup1\n      swap2\n      sub\n      swap1\n      return\n        /* \"smarts/Example/Example.sol\":190:727  function sample() public {... */\n    tag_4:\n      tag_9\n      tag_10\n      jump\t// in\n    tag_9:\n      stop\n        /* \"smarts/Example/Example.sol\":735:906  function count() public pure returns (uint) {... */\n    tag_6:\n        /* \"smarts/Example/Example.sol\":773:777  uint */\n      0x00\n        /* \"smarts/Example/Example.sol\":790:798  uint sum */\n      dup1\n        /* \"smarts/Example/Example.sol\":801:802  0 */\n      0x00\n        /* \"smarts/Example/Example.sol\":790:802  uint sum = 0 */\n      swap1\n      pop\n        /* \"smarts/Example/Example.sol\":818:824  uint i */\n      0x00\n        /* \"smarts/Example/Example.sol\":813:878  for (uint i = 0; i < 10; i++) {... */\n    tag_12:\n        /* \"smarts/Example/Example.sol\":834:836  10 */\n      0x0a\n        /* \"smarts/Example/Example.sol\":830:831  i */\n      dup2\n        /* \"smarts/Example/Example.sol\":830:836  i < 10 */\n      lt\n        /* \"smarts/Example/Example.sol\":813:878  for (uint i = 0; i < 10; i++) {... */\n      iszero\n      tag_13\n      jumpi\n        /* \"smarts/Example/Example.sol\":865:866  i */\n      dup1\n        /* \"smarts/Example/Example.sol\":858:866  sum += i */\n      dup3\n      tag_15\n      swap2\n      swap1\n      tag_16\n      jump\t// in\n    tag_15:\n      swap2\n      pop\n        /* \"smarts/Example/Example.sol\":838:841  i++ */\n      dup1\n      dup1\n      0x01\n      add\n      swap2\n      pop\n      pop\n        /* \"smarts/Example/Example.sol\":813:878  for (uint i = 0; i < 10; i++) {... */\n      jump(tag_12)\n    tag_13:\n      pop\n        /* \"smarts/Example/Example.sol\":895:898  sum */\n      dup1\n        /* \"smarts/Example/Example.sol\":888:898  return sum */\n      swap2\n      pop\n      pop\n        /* \"smarts/Example/Example.sol\":735:906  function count() public pure returns (uint) {... */\n      swap1\n      jump\t// out\n        /* \"smarts/Example/Example.sol\":190:727  function sample() public {... */\n    tag_10:\n        /* \"smarts/Example/Example.sol\":237:239  42 */\n      0x2a\n        /* \"smarts/Example/Example.sol\":226:231  items */\n      0x00\n        /* \"smarts/Example/Example.sol\":232:233  0 */\n      dup1\n        /* \"smarts/Example/Example.sol\":226:234  items[0] */\n      0x0a\n      dup2\n      lt\n      tag_18\n      jumpi\n      tag_19\n      tag_20\n      jump\t// in\n    tag_19:\n    tag_18:\n      add\n        /* \"smarts/Example/Example.sol\":226:239  items[0] = 42 */\n      dup2\n      swap1\n      sstore\n      pop\n        /* \"smarts/Example/Example.sol\":261:263  43 */\n      0x2b\n        /* \"smarts/Example/Example.sol\":250:255  items */\n      0x00\n        /* \"smarts/Example/Example.sol\":256:257  1 */\n      0x01\n        /* \"smarts/Example/Example.sol\":250:258  items[1] */\n      0x0a\n      dup2\n      lt\n      tag_22\n      jumpi\n      tag_23\n      tag_20\n      jump\t// in\n    tag_23:\n    tag_22:\n      add\n        /* \"smarts/Example/Example.sol\":250:263  items[1] = 43 */\n      dup2\n      swap1\n      sstore\n      pop\n        /* \"smarts/Example/Example.sol\":285:287  44 */\n      0x2c\n        /* \"smarts/Example/Example.sol\":274:279  items */\n      0x00\n        /* \"smarts/Example/Example.sol\":280:281  2 */\n      0x02\n        /* \"smarts/Example/Example.sol\":274:282  items[2] */\n      0x0a\n      dup2\n      lt\n      tag_25\n      jumpi\n      tag_26\n      tag_20\n      jump\t// in\n    tag_26:\n    tag_25:\n      add\n        /* \"smarts/Example/Example.sol\":274:287  items[2] = 44 */\n      dup2\n      swap1\n      sstore\n      pop\n        /* \"smarts/Example/Example.sol\":323:331  notItems */\n      0x0a\n        /* \"smarts/Example/Example.sol\":323:338  notItems.length */\n      dup1\n      sload\n      swap1\n      pop\n      pop\n        /* \"smarts/Example/Example.sol\":349:357  notItems */\n      0x0a\n        /* \"smarts/Example/Example.sol\":363:364  2 */\n      0x02\n        /* \"smarts/Example/Example.sol\":349:365  notItems.push(2) */\n      swap1\n      dup1\n      0x01\n      dup2\n      sload\n      add\n      dup1\n      dup3\n      sstore\n      dup1\n      swap2\n      pop\n      pop\n      0x01\n      swap1\n      sub\n      swap1\n      0x00\n      mstore\n      keccak256(0x00, 0x20)\n      add\n      0x00\n      swap1\n      swap2\n      swap1\n      swap2\n      swap1\n      swap2\n      pop\n      sstore\n        /* \"smarts/Example/Example.sol\":376:384  notItems */\n      0x0a\n        /* \"smarts/Example/Example.sol\":376:390  notItems.pop() */\n      dup1\n      sload\n      dup1\n      tag_29\n      jumpi\n      tag_30\n      tag_31\n      jump\t// in\n    tag_30:\n    tag_29:\n      0x01\n      swap1\n      sub\n      dup2\n      dup2\n      swap1\n      0x00\n      mstore\n      keccak256(0x00, 0x20)\n      add\n      0x00\n      swap1\n      sstore\n      swap1\n      sstore\n        /* \"smarts/Example/Example.sol\":190:727  function sample() public {... */\n      jump\t// out\n        /* \"#utility.yul\":7:84   */\n    tag_33:\n        /* \"#utility.yul\":44:51   */\n      0x00\n        /* \"#utility.yul\":73:78   */\n      dup2\n        /* \"#utility.yul\":62:78   */\n      swap1\n      pop\n        /* \"#utility.yul\":7:84   */\n      swap2\n      swap1\n      pop\n      jump\t// out\n        /* \"#utility.yul\":90:208   */\n    tag_34:\n        /* \"#utility.yul\":177:201   */\n      tag_39\n        /* \"#utility.yul\":195:200   */\n      dup2\n        /* \"#utility.yul\":177:201   */\n      tag_33\n      jump\t// in\n    tag_39:\n        /* \"#utility.yul\":172:175   */\n      dup3\n        /* \"#utility.yul\":165:202   */\n      mstore\n        /* \"#utility.yul\":90:208   */\n      pop\n      pop\n      jump\t// out\n        /* \"#utility.yul\":214:436   */\n    tag_8:\n        /* \"#utility.yul\":307:311   */\n      0x00\n        /* \"#utility.yul\":345:347   */\n      0x20\n        /* \"#utility.yul\":334:343   */\n      dup3\n        /* \"#utility.yul\":330:348   */\n      add\n        /* \"#utility.yul\":322:348   */\n      swap1\n      pop\n        /* \"#utility.yul\":358:429   */\n      tag_41\n        /* \"#utility.yul\":426:427   */\n      0x00\n        /* \"#utility.yul\":415:424   */\n      dup4\n        /* \"#utility.yul\":411:428   */\n      add\n        /* \"#utility.yul\":402:408   */\n      dup5\n        /* \"#utility.yul\":358:429   */\n      tag_34\n      jump\t// in\n    tag_41:\n        /* \"#utility.yul\":214:436   */\n      swap3\n      swap2\n      pop\n      pop\n      jump\t// out\n        /* \"#utility.yul\":442:622   */\n    tag_35:\n        /* \"#utility.yul\":490:567   */\n      0x4e487b7100000000000000000000000000000000000000000000000000000000\n        /* \"#utility.yul\":487:488   */\n      0x00\n        /* \"#utility.yul\":480:568   */\n      mstore\n        /* \"#utility.yul\":587:591   */\n      0x11\n        /* \"#utility.yul\":584:585   */\n      0x04\n        /* \"#utility.yul\":577:592   */\n      mstore\n        /* \"#utility.yul\":611:615   */\n      0x24\n        /* \"#utility.yul\":608:609   */\n      0x00\n        /* \"#utility.yul\":601:616   */\n      revert\n        /* \"#utility.yul\":628:819   */\n    tag_16:\n        /* \"#utility.yul\":668:671   */\n      0x00\n        /* \"#utility.yul\":687:707   */\n      tag_44\n        /* \"#utility.yul\":705:706   */\n      dup3\n        /* \"#utility.yul\":687:707   */\n      tag_33\n      jump\t// in\n    tag_44:\n        /* \"#utility.yul\":682:707   */\n      swap2\n      pop\n        /* \"#utility.yul\":721:741   */\n      tag_45\n        /* \"#utility.yul\":739:740   */\n      dup4\n        /* \"#utility.yul\":721:741   */\n      tag_33\n      jump\t// in\n    tag_45:\n        /* \"#utility.yul\":716:741   */\n      swap3\n      pop\n        /* \"#utility.yul\":764:765   */\n      dup3\n        /* \"#utility.yul\":761:762   */\n      dup3\n        /* \"#utility.yul\":757:766   */\n      add\n        /* \"#utility.yul\":750:766   */\n      swap1\n      pop\n        /* \"#utility.yul\":785:788   */\n      dup1\n        /* \"#utility.yul\":782:783   */\n      dup3\n        /* \"#utility.yul\":779:789   */\n      gt\n        /* \"#utility.yul\":776:812   */\n      iszero\n      tag_46\n      jumpi\n        /* \"#utility.yul\":792:810   */\n      tag_47\n      tag_35\n      jump\t// in\n    tag_47:\n        /* \"#utility.yul\":776:812   */\n    tag_46:\n        /* \"#utility.yul\":628:819   */\n      swap3\n      swap2\n      pop\n      pop\n      jump\t// out\n        /* \"#utility.yul\":825:1005   */\n    tag_20:\n        /* \"#utility.yul\":873:950   */\n      0x4e487b7100000000000000000000000000000000000000000000000000000000\n        /* \"#utility.yul\":870:871   */\n      0x00\n        /* \"#utility.yul\":863:951   */\n      mstore\n        /* \"#utility.yul\":970:974   */\n      0x32\n        /* \"#utility.yul\":967:968   */\n      0x04\n        /* \"#utility.yul\":960:975   */\n      mstore\n        /* \"#utility.yul\":994:998   */\n      0x24\n        /* \"#utility.yul\":991:992   */\n      0x00\n        /* \"#utility.yul\":984:999   */\n      revert\n        /* \"#utility.yul\":1011:1191   */\n    tag_31:\n        /* \"#utility.yul\":1059:1136   */\n      0x4e487b7100000000000000000000000000000000000000000000000000000000\n        /* \"#utility.yul\":1056:1057   */\n      0x00\n        /* \"#utility.yul\":1049:1137   */\n      mstore\n        /* \"#utility.yul\":1156:1160   */\n      0x31\n        /* \"#utility.yul\":1153:1154   */\n      0x04\n        /* \"#utility.yul\":1146:1161   */\n      mstore\n        /* \"#utility.yul\":1180:1184   */\n      0x24\n        /* \"#utility.yul\":1177:1178   */\n      0x00\n        /* \"#utility.yul\":1170:1185   */\n      revert\n\n    auxdata: 0xa26469706673582212205ba934026bb704eb948fea8e55d33b8a91fad7304b9651d13d9bfcdac6cb302664736f6c634300081a0033\n}\n",
				"bytecode": {
					"linkReferences": {},
					"object": "6080604052348015600e575f80fd5b506102598061001c5f395ff3fe608060405234801561000f575f80fd5b5060043610610034575f3560e01c806306661abd14610038578063c9482a5d14610056575b5f80fd5b610040610060565b60405161004d9190610150565b60405180910390f35b61005e610093565b005b5f805f90505f5b600a81101561008b57808261007c9190610196565b91508080600101915050610067565b508091505090565b602a5f80600a81106100a8576100a76101c9565b5b0181905550602b5f6001600a81106100c3576100c26101c9565b5b0181905550602c5f6002600a81106100de576100dd6101c9565b5b0181905550600a8054905050600a6002908060018154018082558091505060019003905f5260205f20015f9091909190915055600a805480610123576101226101f6565b5b600190038181905f5260205f20015f90559055565b5f819050919050565b61014a81610138565b82525050565b5f6020820190506101635f830184610141565b92915050565b7f4e487b71000000000000000000000000000000000000000000000000000000005f52601160045260245ffd5b5f6101a082610138565b91506101ab83610138565b92508282019050808211156101c3576101c2610169565b5b92915050565b7f4e487b71000000000000000000000000000000000000000000000000000000005f52603260045260245ffd5b7f4e487b71000000000000000000000000000000000000000000000000000000005f52603160045260245ffdfea26469706673582212205ba934026bb704eb948fea8e55d33b8a91fad7304b9651d13d9bfcdac6cb302664736f6c634300081a0033",
					"opcodes": "PUSH1 0x80 PUSH1 0x40 MSTORE CALLVALUE DUP1 ISZERO PUSH1 0xE JUMPI PUSH0 DUP1 REVERT JUMPDEST POP PUSH2 0x259 DUP1 PUSH2 0x1C PUSH0 CODECOPY PUSH0 RETURN INVALID PUSH1 0x80 PUSH1 0x40 MSTORE CALLVALUE DUP1 ISZERO PUSH2 0xF JUMPI PUSH0 DUP1 REVERT JUMPDEST POP PUSH1 0x4 CALLDATASIZE LT PUSH2 0x34 JUMPI PUSH0 CALLDATALOAD PUSH1 0xE0 SHR DUP1 PUSH4 0x6661ABD EQ PUSH2 0x38 JUMPI DUP1 PUSH4 0xC9482A5D EQ PUSH2 0x56 JUMPI JUMPDEST PUSH0 DUP1 REVERT JUMPDEST PUSH2 0x40 PUSH2 0x60 JUMP JUMPDEST PUSH1 0x40 MLOAD PUSH2 0x4D SWAP2 SWAP1 PUSH2 0x150 JUMP JUMPDEST PUSH1 0x40 MLOAD DUP1 SWAP2 SUB SWAP1 RETURN JUMPDEST PUSH2 0x5E PUSH2 0x93 JUMP JUMPDEST STOP JUMPDEST PUSH0 DUP1 PUSH0 SWAP1 POP PUSH0 JUMPDEST PUSH1 0xA DUP2 LT ISZERO PUSH2 0x8B JUMPI DUP1 DUP3 PUSH2 0x7C SWAP2 SWAP1 PUSH2 0x196 JUMP JUMPDEST SWAP2 POP DUP1 DUP1 PUSH1 0x1 ADD SWAP2 POP POP PUSH2 0x67 JUMP JUMPDEST POP DUP1 SWAP2 POP POP SWAP1 JUMP JUMPDEST PUSH1 0x2A PUSH0 DUP1 PUSH1 0xA DUP2 LT PUSH2 0xA8 JUMPI PUSH2 0xA7 PUSH2 0x1C9 JUMP JUMPDEST JUMPDEST ADD DUP2 SWAP1 SSTORE POP PUSH1 0x2B PUSH0 PUSH1 0x1 PUSH1 0xA DUP2 LT PUSH2 0xC3 JUMPI PUSH2 0xC2 PUSH2 0x1C9 JUMP JUMPDEST JUMPDEST ADD DUP2 SWAP1 SSTORE POP PUSH1 0x2C PUSH0 PUSH1 0x2 PUSH1 0xA DUP2 LT PUSH2 0xDE JUMPI PUSH2 0xDD PUSH2 0x1C9 JUMP JUMPDEST JUMPDEST ADD DUP2 SWAP1 SSTORE POP PUSH1 0xA DUP1 SLOAD SWAP1 POP POP PUSH1 0xA PUSH1 0x2 SWAP1 DUP1 PUSH1 0x1 DUP2 SLOAD ADD DUP1 DUP3 SSTORE DUP1 SWAP2 POP POP PUSH1 0x1 SWAP1 SUB SWAP1 PUSH0 MSTORE PUSH1 0x20 PUSH0 KECCAK256 ADD PUSH0 SWAP1 SWAP2 SWAP1 SWAP2 SWAP1 SWAP2 POP SSTORE PUSH1 0xA DUP1 SLOAD DUP1 PUSH2 0x123 JUMPI PUSH2 0x122 PUSH2 0x1F6 JUMP JUMPDEST JUMPDEST PUSH1 0x1 SWAP1 SUB DUP2 DUP2 SWAP1 PUSH0 MSTORE PUSH1 0x20 PUSH0 KECCAK256 ADD PUSH0 SWAP1 SSTORE SWAP1 SSTORE JUMP JUMPDEST PUSH0 DUP2 SWAP1 POP SWAP2 SWAP1 POP JUMP JUMPDEST PUSH2 0x14A DUP2 PUSH2 0x138 JUMP JUMPDEST DUP3 MSTORE POP POP JUMP JUMPDEST PUSH0 PUSH1 0x20 DUP3 ADD SWAP1 POP PUSH2 0x163 PUSH0 DUP4 ADD DUP5 PUSH2 0x141 JUMP JUMPDEST SWAP3 SWAP2 POP POP JUMP JUMPDEST PUSH32 0x4E487B7100000000000000000000000000000000000000000000000000000000 PUSH0 MSTORE PUSH1 0x11 PUSH1 0x4 MSTORE PUSH1 0x24 PUSH0 REVERT JUMPDEST PUSH0 PUSH2 0x1A0 DUP3 PUSH2 0x138 JUMP JUMPDEST SWAP2 POP PUSH2 0x1AB DUP4 PUSH2 0x138 JUMP JUMPDEST SWAP3 POP DUP3 DUP3 ADD SWAP1 POP DUP1 DUP3 GT ISZERO PUSH2 0x1C3 JUMPI PUSH2 0x1C2 PUSH2 0x169 JUMP JUMPDEST JUMPDEST SWAP3 SWAP2 POP POP JUMP JUMPDEST PUSH32 0x4E487B7100000000000000000000000000000000000000000000000000000000 PUSH0 MSTORE PUSH1 0x32 PUSH1 0x4 MSTORE PUSH1 0x24 PUSH0 REVERT JUMPDEST PUSH32 0x4E487B7100000000000000000000000000000000000000000000000000000000 PUSH0 MSTORE PUSH1 0x31 PUSH1 0x4 MSTORE PUSH1 0x24 PUSH0 REVERT INVALID LOG2 PUSH5 0x6970667358 0x22 SLT KECCAK256 JUMPDEST 0xA9 CALLVALUE MUL PUSH12 0xB704EB948FEA8E55D33B8A91 STATICCALL 0xD7 ADDRESS 0x4B SWAP7 MLOAD 0xD1 RETURNDATASIZE SWAP12 0xFC 0xDA 0xC6 0xCB ADDRESS 0x26 PUSH5 0x736F6C6343 STOP ADDMOD BYTE STOP CALLER "
				},
				"gasEstimates": {
					"creation": {
						"codeDepositCost": "120200",
						"executionCost": "163",
						"totalCost": "120363"
					},
					"external": {
						"count()": "infinite",
						"sample()": "144400"
					}
				},
				"methodIdentifiers": {
					"count()": "06661abd",
					"sample()": "c9482a5d"
				}
			},
			"storageLayout": {
				"storage": [
					{
						"astId": 5,
						"contract": "smarts/Example/Example.sol:Example",
						"label": "items",
						"offset": 0,
						"slot": "0",
						"type": "t_array(t_uint256)10_storage"
					},
					{
						"astId": 8,
						"contract": "smarts/Example/Example.sol:Example",
						"label": "notItems",
						"offset": 0,
						"slot": "10",
						"type": "t_array(t_uint256)dyn_storage"
					}
				],
				"types": {
					"t_array(t_uint256)10_storage": {
						"base": "t_uint256",
						"encoding": "inplace",
						"label": "uint256[10]",
						"numberOfBytes": "320"
					},
					"t_array(t_uint256)dyn_storage": {
						"base": "t_uint256",
						"encoding": "dynamic_array",
						"label": "uint256[]",
						"numberOfBytes": "32"
					},
					"t_uint256": {
						"encoding": "inplace",
						"label": "uint256",
						"numberOfBytes": "32"
					}
				}
			},
			"userdoc": {
				"kind": "user",
				"methods": {},
				"version": 1
			}
		}
	}
}