{
	"fundMe/FundMe.sol": {
		"FundMe": {
			"abi": [
				{
					"inputs": [],
					"stateMutability": "nonpayable",
					"type": "constructor"
				},
				{
					"inputs": [],
					"name": "fund",
					"outputs": [],
					"stateMutability": "payable",
					"type": "function"
				},
				{
					"inputs": [
						{
							"internalType": "address",
							"name": "_addr",
							"type": "address"
						},
						{
							"internalType": "uint256",
							"name": "_index",
							"type": "uint256"
						}
					],
					"name": "getFund",
					"outputs": [
						{
							"internalType": "uint256",
							"name": "",
							"type": "uint256"
						}
					],
					"stateMutability": "view",
					"type": "function"
				},
				{
					"inputs": [
						{
							"internalType": "uint256",
							"name": "_number",
							"type": "uint256"
						}
					],
					"name": "getMyNumber",
					"outputs": [
						{
							"internalType": "uint256",
							"name": "",
							"type": "uint256"
						}
					],
					"stateMutability": "pure",
					"type": "function"
				},
				{
					"inputs": [],
					"name": "withdraw",
					"outputs": [],
					"stateMutability": "nonpayable",
					"type": "function"
				}
			],
			"devdoc": {
				"kind": "dev",
				"methods": {},
				"version": 1
			},
			"evm": {
				"assembly": "    /* \"fundMe/FundMe.sol\":100:1466  contract FundMe {... */\n  mstore(0x40, 0x80)\n    /* \"fundMe/FundMe.sol\":177:228  constructor() {... */\n  callvalue\n  dup1\n  iszero\n  tag_1\n  jumpi\n  0x00\n  dup1\n  revert\ntag_1:\n  pop\n    /* \"fundMe/FundMe.sol\":210:220  msg.sender */\n  caller\n    /* \"fundMe/FundMe.sol\":202:207  owner */\n  0x00\n  dup1\n    /* \"fundMe/FundMe.sol\":202:220  owner = msg.sender */\n  0x0100\n  exp\n  dup2\n  sload\n  dup2\n  0xffffffffffffffffffffffffffffffffffffffff\n  mul\n  not\n  and\n  swap1\n  dup4\n  0xffffffffffffffffffffffffffffffffffffffff\n  and\n  mul\n  or\n  swap1\n  sstore\n  pop\n    /* \"fundMe/FundMe.sol\":100:1466  contract FundMe {... */\n  dataSize(sub_0)\n  dup1\n  dataOffset(sub_0)\n  0x00\n  codecopy\n  0x00\n  return\nstop\n\nsub_0: assembly {\n        /* \"fundMe/FundMe.sol\":100:1466  contract FundMe {... */\n      mstore(0x40, 0x80)\n      jumpi(tag_1, lt(calldatasize, 0x04))\n      shr(0xe0, calldataload(0x00))\n      dup1\n      0x3ccfd60b\n      eq\n      tag_2\n      jumpi\n      dup1\n      0x8bd99c4f\n      eq\n      tag_3\n      jumpi\n      dup1\n      0xb60d4288\n      eq\n      tag_4\n      jumpi\n      dup1\n      0xdc36b2b1\n      eq\n      tag_5\n      jumpi\n    tag_1:\n      0x00\n      dup1\n      revert\n        /* \"fundMe/FundMe.sol\":1121:1463  function withdraw() public {... */\n    tag_2:\n      callvalue\n      dup1\n      iszero\n      tag_6\n      jumpi\n      0x00\n      dup1\n      revert\n    tag_6:\n      pop\n      tag_7\n      tag_8\n      jump\t// in\n    tag_7:\n      stop\n        /* \"fundMe/FundMe.sol\":813:933  function getFund(address _addr, uint _index) public view returns(uint) {... */\n    tag_3:\n      callvalue\n      dup1\n      iszero\n      tag_9\n      jumpi\n      0x00\n      dup1\n      revert\n    tag_9:\n      pop\n      tag_10\n      0x04\n      dup1\n      calldatasize\n      sub\n      dup2\n      add\n      swap1\n      tag_11\n      swap2\n      swap1\n      tag_12\n      jump\t// in\n    tag_11:\n      tag_13\n      jump\t// in\n    tag_10:\n      mload(0x40)\n      tag_14\n      swap2\n      swap1\n      tag_15\n      jump\t// in\n    tag_14:\n      mload(0x40)\n      dup1\n      swap2\n      sub\n      swap1\n      return\n        /* \"fundMe/FundMe.sol\":484:805  function fund() public payable  {... */\n    tag_4:\n      tag_16\n      tag_17\n      jump\t// in\n    tag_16:\n      stop\n        /* \"fundMe/FundMe.sol\":941:1045  function getMyNumber(uint _number) public pure returns(uint) {... */\n    tag_5:\n      callvalue\n      dup1\n      iszero\n      tag_18\n      jumpi\n      0x00\n      dup1\n      revert\n    tag_18:\n      pop\n      tag_19\n      0x04\n      dup1\n      calldatasize\n      sub\n      dup2\n      add\n      swap1\n      tag_20\n      swap2\n      swap1\n      tag_21\n      jump\t// in\n    tag_20:\n      tag_22\n      jump\t// in\n    tag_19:\n      mload(0x40)\n      tag_23\n      swap2\n      swap1\n      tag_15\n      jump\t// in\n    tag_23:\n      mload(0x40)\n      dup1\n      swap2\n      sub\n      swap1\n      return\n        /* \"fundMe/FundMe.sol\":1121:1463  function withdraw() public {... */\n    tag_8:\n        /* \"fundMe/FundMe.sol\":1181:1186  owner */\n      0x00\n      dup1\n      sload\n      swap1\n      0x0100\n      exp\n      swap1\n      div\n      0xffffffffffffffffffffffffffffffffffffffff\n      and\n        /* \"fundMe/FundMe.sol\":1167:1186  msg.sender == owner */\n      0xffffffffffffffffffffffffffffffffffffffff\n      and\n        /* \"fundMe/FundMe.sol\":1167:1177  msg.sender */\n      caller\n        /* \"fundMe/FundMe.sol\":1167:1186  msg.sender == owner */\n      0xffffffffffffffffffffffffffffffffffffffff\n      and\n      eq\n        /* \"fundMe/FundMe.sol\":1159:1187  require(msg.sender == owner) */\n      tag_25\n      jumpi\n      0x00\n      dup1\n      revert\n    tag_25:\n        /* \"fundMe/FundMe.sol\":1230:1231  0 */\n      0x00\n        /* \"fundMe/FundMe.sol\":1206:1227  address(this).balance */\n      selfbalance\n        /* \"fundMe/FundMe.sol\":1206:1231  address(this).balance > 0 */\n      gt\n        /* \"fundMe/FundMe.sol\":1198:1232  require(address(this).balance > 0) */\n      tag_26\n      jumpi\n      0x00\n      dup1\n      revert\n    tag_26:\n        /* \"fundMe/FundMe.sol\":1243:1262  address payable _to */\n      0x00\n        /* \"fundMe/FundMe.sol\":1273:1278  owner */\n      dup1\n      0x00\n      swap1\n      sload\n      swap1\n      0x0100\n      exp\n      swap1\n      div\n      0xffffffffffffffffffffffffffffffffffffffff\n      and\n        /* \"fundMe/FundMe.sol\":1243:1279  address payable _to = payable(owner) */\n      swap1\n      pop\n        /* \"fundMe/FundMe.sol\":1290:1299  uint ball */\n      0x00\n        /* \"fundMe/FundMe.sol\":1302:1323  address(this).balance */\n      selfbalance\n        /* \"fundMe/FundMe.sol\":1290:1323  uint ball = address(this).balance */\n      swap1\n      pop\n        /* \"fundMe/FundMe.sol\":1367:1376  bool sent */\n      0x00\n        /* \"fundMe/FundMe.sol\":1382:1385  _to */\n      dup3\n        /* \"fundMe/FundMe.sol\":1382:1390  _to.call */\n      0xffffffffffffffffffffffffffffffffffffffff\n      and\n        /* \"fundMe/FundMe.sol\":1398:1402  ball */\n      dup3\n        /* \"fundMe/FundMe.sol\":1382:1407  _to.call{value: ball}(\"\") */\n      mload(0x40)\n      tag_27\n      swap1\n      tag_28\n      jump\t// in\n    tag_27:\n      0x00\n      mload(0x40)\n      dup1\n      dup4\n      sub\n      dup2\n      dup6\n      dup8\n      gas\n      call\n      swap3\n      pop\n      pop\n      pop\n      returndatasize\n      dup1\n      0x00\n      dup2\n      eq\n      tag_31\n      jumpi\n      mload(0x40)\n      swap2\n      pop\n      and(add(returndatasize, 0x3f), not(0x1f))\n      dup3\n      add\n      0x40\n      mstore\n      returndatasize\n      dup3\n      mstore\n      returndatasize\n      0x00\n      0x20\n      dup5\n      add\n      returndatacopy\n      jump(tag_30)\n    tag_31:\n      0x60\n      swap2\n      pop\n    tag_30:\n      pop\n        /* \"fundMe/FundMe.sol\":1366:1407  (bool sent, ) = _to.call{value: ball}(\"\") */\n      pop\n      swap1\n      pop\n        /* \"fundMe/FundMe.sol\":1426:1430  sent */\n      dup1\n        /* \"fundMe/FundMe.sol\":1418:1455  require(sent, \"Failed to send Ether\") */\n      tag_32\n      jumpi\n      mload(0x40)\n      0x08c379a000000000000000000000000000000000000000000000000000000000\n      dup2\n      mstore\n      0x04\n      add\n      tag_33\n      swap1\n      tag_34\n      jump\t// in\n    tag_33:\n      mload(0x40)\n      dup1\n      swap2\n      sub\n      swap1\n      revert\n    tag_32:\n        /* \"fundMe/FundMe.sol\":1148:1463  {... */\n      pop\n      pop\n      pop\n        /* \"fundMe/FundMe.sol\":1121:1463  function withdraw() public {... */\n      jump\t// out\n        /* \"fundMe/FundMe.sol\":813:933  function getFund(address _addr, uint _index) public view returns(uint) {... */\n    tag_13:\n        /* \"fundMe/FundMe.sol\":878:882  uint */\n      0x00\n        /* \"fundMe/FundMe.sol\":902:910  balances */\n      0x02\n        /* \"fundMe/FundMe.sol\":902:917  balances[_addr] */\n      0x00\n        /* \"fundMe/FundMe.sol\":911:916  _addr */\n      dup5\n        /* \"fundMe/FundMe.sol\":902:917  balances[_addr] */\n      0xffffffffffffffffffffffffffffffffffffffff\n      and\n      0xffffffffffffffffffffffffffffffffffffffff\n      and\n      dup2\n      mstore\n      0x20\n      add\n      swap1\n      dup2\n      mstore\n      0x20\n      add\n      0x00\n      keccak256\n        /* \"fundMe/FundMe.sol\":918:924  _index */\n      dup3\n        /* \"fundMe/FundMe.sol\":902:925  balances[_addr][_index] */\n      dup2\n      sload\n      dup2\n      lt\n      tag_36\n      jumpi\n      tag_37\n      tag_38\n      jump\t// in\n    tag_37:\n    tag_36:\n      swap1\n      0x00\n      mstore\n      keccak256(0x00, 0x20)\n      add\n      sload\n        /* \"fundMe/FundMe.sol\":895:925  return balances[_addr][_index] */\n      swap1\n      pop\n        /* \"fundMe/FundMe.sol\":813:933  function getFund(address _addr, uint _index) public view returns(uint) {... */\n      swap3\n      swap2\n      pop\n      pop\n      jump\t// out\n        /* \"fundMe/FundMe.sol\":484:805  function fund() public payable  {... */\n    tag_17:\n        /* \"fundMe/FundMe.sol\":548:555  2 ether */\n      0x1bc16d674ec80000\n        /* \"fundMe/FundMe.sol\":535:544  msg.value */\n      callvalue\n        /* \"fundMe/FundMe.sol\":535:555  msg.value >= 2 ether */\n      lt\n      iszero\n        /* \"fundMe/FundMe.sol\":527:583  require(msg.value >= 2 ether, \"didnt send enough money\") */\n      tag_41\n      jumpi\n      mload(0x40)\n      0x08c379a000000000000000000000000000000000000000000000000000000000\n      dup2\n      mstore\n      0x04\n      add\n      tag_42\n      swap1\n      tag_43\n      jump\t// in\n    tag_42:\n      mload(0x40)\n      dup1\n      swap2\n      sub\n      swap1\n      revert\n    tag_41:\n        /* \"fundMe/FundMe.sol\":596:617  InfoPay memory newPay */\n      0x00\n        /* \"fundMe/FundMe.sol\":620:717  InfoPay(... */\n      mload(0x40)\n      dup1\n      0x60\n      add\n      0x40\n      mstore\n      dup1\n        /* \"fundMe/FundMe.sol\":642:651  msg.value */\n      callvalue\n        /* \"fundMe/FundMe.sol\":620:717  InfoPay(... */\n      dup2\n      mstore\n      0x20\n      add\n        /* \"fundMe/FundMe.sol\":666:676  msg.sender */\n      caller\n        /* \"fundMe/FundMe.sol\":620:717  InfoPay(... */\n      0xffffffffffffffffffffffffffffffffffffffff\n      and\n      dup2\n      mstore\n      0x20\n      add\n        /* \"fundMe/FundMe.sol\":691:706  block.timestamp */\n      timestamp\n        /* \"fundMe/FundMe.sol\":620:717  InfoPay(... */\n      dup2\n      mstore\n      pop\n        /* \"fundMe/FundMe.sol\":596:717  InfoPay memory newPay = InfoPay(... */\n      swap1\n      pop\n        /* \"fundMe/FundMe.sol\":730:737  infopay */\n      0x01\n        /* \"fundMe/FundMe.sol\":743:749  newPay */\n      dup2\n        /* \"fundMe/FundMe.sol\":730:750  infopay.push(newPay) */\n      swap1\n      dup1\n      0x01\n      dup2\n      sload\n      add\n      dup1\n      dup3\n      sstore\n      dup1\n      swap2\n      pop\n      pop\n      0x01\n      swap1\n      sub\n      swap1\n      0x00\n      mstore\n      keccak256(0x00, 0x20)\n      swap1\n      0x03\n      mul\n      add\n      0x00\n      swap1\n      swap2\n      swap1\n      swap2\n      swap1\n      swap2\n      pop\n      0x00\n      dup3\n      add\n      mload\n      dup2\n      0x00\n      add\n      sstore\n      0x20\n      dup3\n      add\n      mload\n      dup2\n      0x01\n      add\n      exp(0x0100, 0x00)\n      dup2\n      sload\n      dup2\n      0xffffffffffffffffffffffffffffffffffffffff\n      mul\n      not\n      and\n      swap1\n      dup4\n      0xffffffffffffffffffffffffffffffffffffffff\n      and\n      mul\n      or\n      swap1\n      sstore\n      pop\n      0x40\n      dup3\n      add\n      mload\n      dup2\n      0x02\n      add\n      sstore\n      pop\n      pop\n        /* \"fundMe/FundMe.sol\":761:769  balances */\n      0x02\n        /* \"fundMe/FundMe.sol\":761:781  balances[msg.sender] */\n      0x00\n        /* \"fundMe/FundMe.sol\":770:780  msg.sender */\n      caller\n        /* \"fundMe/FundMe.sol\":761:781  balances[msg.sender] */\n      0xffffffffffffffffffffffffffffffffffffffff\n      and\n      0xffffffffffffffffffffffffffffffffffffffff\n      and\n      dup2\n      mstore\n      0x20\n      add\n      swap1\n      dup2\n      mstore\n      0x20\n      add\n      0x00\n      keccak256\n        /* \"fundMe/FundMe.sol\":787:796  msg.value */\n      callvalue\n        /* \"fundMe/FundMe.sol\":761:797  balances[msg.sender].push(msg.value) */\n      swap1\n      dup1\n      0x01\n      dup2\n      sload\n      add\n      dup1\n      dup3\n      sstore\n      dup1\n      swap2\n      pop\n      pop\n      0x01\n      swap1\n      sub\n      swap1\n      0x00\n      mstore\n      keccak256(0x00, 0x20)\n      add\n      0x00\n      swap1\n      swap2\n      swap1\n      swap2\n      swap1\n      swap2\n      pop\n      sstore\n        /* \"fundMe/FundMe.sol\":516:805  {... */\n      pop\n        /* \"fundMe/FundMe.sol\":484:805  function fund() public payable  {... */\n      jump\t// out\n        /* \"fundMe/FundMe.sol\":941:1045  function getMyNumber(uint _number) public pure returns(uint) {... */\n    tag_22:\n        /* \"fundMe/FundMe.sol\":996:1000  uint */\n      0x00\n        /* \"fundMe/FundMe.sol\":1021:1037  _number.multiM() */\n      tag_47\n        /* \"fundMe/FundMe.sol\":1021:1028  _number */\n      dup3\n        /* \"fundMe/FundMe.sol\":1021:1035  _number.multiM */\n      tag_48\n        /* \"fundMe/FundMe.sol\":1021:1037  _number.multiM() */\n      jump\t// in\n    tag_47:\n        /* \"fundMe/FundMe.sol\":1013:1037  return  _number.multiM() */\n      swap1\n      pop\n        /* \"fundMe/FundMe.sol\":941:1045  function getMyNumber(uint _number) public pure returns(uint) {... */\n      swap2\n      swap1\n      pop\n      jump\t// out\n        /* \"fundMe/lib.sol\":86:180  function multiM(uint _amount) internal pure returns(uint){... */\n    tag_48:\n        /* \"fundMe/lib.sol\":138:142  uint */\n      0x00\n        /* \"fundMe/lib.sol\":171:172  2 */\n      0x02\n        /* \"fundMe/lib.sol\":161:168  _amount */\n      dup3\n        /* \"fundMe/lib.sol\":161:172  _amount * 2 */\n      tag_50\n      swap2\n      swap1\n      tag_51\n      jump\t// in\n    tag_50:\n        /* \"fundMe/lib.sol\":154:172  return _amount * 2 */\n      swap1\n      pop\n        /* \"fundMe/lib.sol\":86:180  function multiM(uint _amount) internal pure returns(uint){... */\n      swap2\n      swap1\n      pop\n      jump\t// out\n        /* \"#utility.yul\":88:205   */\n    tag_53:\n        /* \"#utility.yul\":197:198   */\n      0x00\n        /* \"#utility.yul\":194:195   */\n      dup1\n        /* \"#utility.yul\":187:199   */\n      revert\n        /* \"#utility.yul\":334:460   */\n    tag_55:\n        /* \"#utility.yul\":371:378   */\n      0x00\n        /* \"#utility.yul\":411:453   */\n      0xffffffffffffffffffffffffffffffffffffffff\n        /* \"#utility.yul\":404:409   */\n      dup3\n        /* \"#utility.yul\":400:454   */\n      and\n        /* \"#utility.yul\":389:454   */\n      swap1\n      pop\n        /* \"#utility.yul\":334:460   */\n      swap2\n      swap1\n      pop\n      jump\t// out\n        /* \"#utility.yul\":466:562   */\n    tag_56:\n        /* \"#utility.yul\":503:510   */\n      0x00\n        /* \"#utility.yul\":532:556   */\n      tag_78\n        /* \"#utility.yul\":550:555   */\n      dup3\n        /* \"#utility.yul\":532:556   */\n      tag_55\n      jump\t// in\n    tag_78:\n        /* \"#utility.yul\":521:556   */\n      swap1\n      pop\n        /* \"#utility.yul\":466:562   */\n      swap2\n      swap1\n      pop\n      jump\t// out\n        /* \"#utility.yul\":568:690   */\n    tag_57:\n        /* \"#utility.yul\":641:665   */\n      tag_80\n        /* \"#utility.yul\":659:664   */\n      dup2\n        /* \"#utility.yul\":641:665   */\n      tag_56\n      jump\t// in\n    tag_80:\n        /* \"#utility.yul\":634:639   */\n      dup2\n        /* \"#utility.yul\":631:666   */\n      eq\n        /* \"#utility.yul\":621:684   */\n      tag_81\n      jumpi\n        /* \"#utility.yul\":680:681   */\n      0x00\n        /* \"#utility.yul\":677:678   */\n      dup1\n        /* \"#utility.yul\":670:682   */\n      revert\n        /* \"#utility.yul\":621:684   */\n    tag_81:\n        /* \"#utility.yul\":568:690   */\n      pop\n      jump\t// out\n        /* \"#utility.yul\":696:835   */\n    tag_58:\n        /* \"#utility.yul\":742:747   */\n      0x00\n        /* \"#utility.yul\":780:786   */\n      dup2\n        /* \"#utility.yul\":767:787   */\n      calldataload\n        /* \"#utility.yul\":758:787   */\n      swap1\n      pop\n        /* \"#utility.yul\":796:829   */\n      tag_83\n        /* \"#utility.yul\":823:828   */\n      dup2\n        /* \"#utility.yul\":796:829   */\n      tag_57\n      jump\t// in\n    tag_83:\n        /* \"#utility.yul\":696:835   */\n      swap3\n      swap2\n      pop\n      pop\n      jump\t// out\n        /* \"#utility.yul\":841:918   */\n    tag_59:\n        /* \"#utility.yul\":878:885   */\n      0x00\n        /* \"#utility.yul\":907:912   */\n      dup2\n        /* \"#utility.yul\":896:912   */\n      swap1\n      pop\n        /* \"#utility.yul\":841:918   */\n      swap2\n      swap1\n      pop\n      jump\t// out\n        /* \"#utility.yul\":924:1046   */\n    tag_60:\n        /* \"#utility.yul\":997:1021   */\n      tag_86\n        /* \"#utility.yul\":1015:1020   */\n      dup2\n        /* \"#utility.yul\":997:1021   */\n      tag_59\n      jump\t// in\n    tag_86:\n        /* \"#utility.yul\":990:995   */\n      dup2\n        /* \"#utility.yul\":987:1022   */\n      eq\n        /* \"#utility.yul\":977:1040   */\n      tag_87\n      jumpi\n        /* \"#utility.yul\":1036:1037   */\n      0x00\n        /* \"#utility.yul\":1033:1034   */\n      dup1\n        /* \"#utility.yul\":1026:1038   */\n      revert\n        /* \"#utility.yul\":977:1040   */\n    tag_87:\n        /* \"#utility.yul\":924:1046   */\n      pop\n      jump\t// out\n        /* \"#utility.yul\":1052:1191   */\n    tag_61:\n        /* \"#utility.yul\":1098:1103   */\n      0x00\n        /* \"#utility.yul\":1136:1142   */\n      dup2\n        /* \"#utility.yul\":1123:1143   */\n      calldataload\n        /* \"#utility.yul\":1114:1143   */\n      swap1\n      pop\n        /* \"#utility.yul\":1152:1185   */\n      tag_89\n        /* \"#utility.yul\":1179:1184   */\n      dup2\n        /* \"#utility.yul\":1152:1185   */\n      tag_60\n      jump\t// in\n    tag_89:\n        /* \"#utility.yul\":1052:1191   */\n      swap3\n      swap2\n      pop\n      pop\n      jump\t// out\n        /* \"#utility.yul\":1197:1671   */\n    tag_12:\n        /* \"#utility.yul\":1265:1271   */\n      0x00\n        /* \"#utility.yul\":1273:1279   */\n      dup1\n        /* \"#utility.yul\":1322:1324   */\n      0x40\n        /* \"#utility.yul\":1310:1319   */\n      dup4\n        /* \"#utility.yul\":1301:1308   */\n      dup6\n        /* \"#utility.yul\":1297:1320   */\n      sub\n        /* \"#utility.yul\":1293:1325   */\n      slt\n        /* \"#utility.yul\":1290:1409   */\n      iszero\n      tag_91\n      jumpi\n        /* \"#utility.yul\":1328:1407   */\n      tag_92\n      tag_53\n      jump\t// in\n    tag_92:\n        /* \"#utility.yul\":1290:1409   */\n    tag_91:\n        /* \"#utility.yul\":1448:1449   */\n      0x00\n        /* \"#utility.yul\":1473:1526   */\n      tag_93\n        /* \"#utility.yul\":1518:1525   */\n      dup6\n        /* \"#utility.yul\":1509:1515   */\n      dup3\n        /* \"#utility.yul\":1498:1507   */\n      dup7\n        /* \"#utility.yul\":1494:1516   */\n      add\n        /* \"#utility.yul\":1473:1526   */\n      tag_58\n      jump\t// in\n    tag_93:\n        /* \"#utility.yul\":1463:1526   */\n      swap3\n      pop\n        /* \"#utility.yul\":1419:1536   */\n      pop\n        /* \"#utility.yul\":1575:1577   */\n      0x20\n        /* \"#utility.yul\":1601:1654   */\n      tag_94\n        /* \"#utility.yul\":1646:1653   */\n      dup6\n        /* \"#utility.yul\":1637:1643   */\n      dup3\n        /* \"#utility.yul\":1626:1635   */\n      dup7\n        /* \"#utility.yul\":1622:1644   */\n      add\n        /* \"#utility.yul\":1601:1654   */\n      tag_61\n      jump\t// in\n    tag_94:\n        /* \"#utility.yul\":1591:1654   */\n      swap2\n      pop\n        /* \"#utility.yul\":1546:1664   */\n      pop\n        /* \"#utility.yul\":1197:1671   */\n      swap3\n      pop\n      swap3\n      swap1\n      pop\n      jump\t// out\n        /* \"#utility.yul\":1677:1795   */\n    tag_62:\n        /* \"#utility.yul\":1764:1788   */\n      tag_96\n        /* \"#utility.yul\":1782:1787   */\n      dup2\n        /* \"#utility.yul\":1764:1788   */\n      tag_59\n      jump\t// in\n    tag_96:\n        /* \"#utility.yul\":1759:1762   */\n      dup3\n        /* \"#utility.yul\":1752:1789   */\n      mstore\n        /* \"#utility.yul\":1677:1795   */\n      pop\n      pop\n      jump\t// out\n        /* \"#utility.yul\":1801:2023   */\n    tag_15:\n        /* \"#utility.yul\":1894:1898   */\n      0x00\n        /* \"#utility.yul\":1932:1934   */\n      0x20\n        /* \"#utility.yul\":1921:1930   */\n      dup3\n        /* \"#utility.yul\":1917:1935   */\n      add\n        /* \"#utility.yul\":1909:1935   */\n      swap1\n      pop\n        /* \"#utility.yul\":1945:2016   */\n      tag_98\n        /* \"#utility.yul\":2013:2014   */\n      0x00\n        /* \"#utility.yul\":2002:2011   */\n      dup4\n        /* \"#utility.yul\":1998:2015   */\n      add\n        /* \"#utility.yul\":1989:1995   */\n      dup5\n        /* \"#utility.yul\":1945:2016   */\n      tag_62\n      jump\t// in\n    tag_98:\n        /* \"#utility.yul\":1801:2023   */\n      swap3\n      swap2\n      pop\n      pop\n      jump\t// out\n        /* \"#utility.yul\":2029:2358   */\n    tag_21:\n        /* \"#utility.yul\":2088:2094   */\n      0x00\n        /* \"#utility.yul\":2137:2139   */\n      0x20\n        /* \"#utility.yul\":2125:2134   */\n      dup3\n        /* \"#utility.yul\":2116:2123   */\n      dup5\n        /* \"#utility.yul\":2112:2135   */\n      sub\n        /* \"#utility.yul\":2108:2140   */\n      slt\n        /* \"#utility.yul\":2105:2224   */\n      iszero\n      tag_100\n      jumpi\n        /* \"#utility.yul\":2143:2222   */\n      tag_101\n      tag_53\n      jump\t// in\n    tag_101:\n        /* \"#utility.yul\":2105:2224   */\n    tag_100:\n        /* \"#utility.yul\":2263:2264   */\n      0x00\n        /* \"#utility.yul\":2288:2341   */\n      tag_102\n        /* \"#utility.yul\":2333:2340   */\n      dup5\n        /* \"#utility.yul\":2324:2330   */\n      dup3\n        /* \"#utility.yul\":2313:2322   */\n      dup6\n        /* \"#utility.yul\":2309:2331   */\n      add\n        /* \"#utility.yul\":2288:2341   */\n      tag_61\n      jump\t// in\n    tag_102:\n        /* \"#utility.yul\":2278:2341   */\n      swap2\n      pop\n        /* \"#utility.yul\":2234:2351   */\n      pop\n        /* \"#utility.yul\":2029:2358   */\n      swap3\n      swap2\n      pop\n      pop\n      jump\t// out\n        /* \"#utility.yul\":2364:2511   */\n    tag_63:\n        /* \"#utility.yul\":2465:2476   */\n      0x00\n        /* \"#utility.yul\":2502:2505   */\n      dup2\n        /* \"#utility.yul\":2487:2505   */\n      swap1\n      pop\n        /* \"#utility.yul\":2364:2511   */\n      swap3\n      swap2\n      pop\n      pop\n      jump\t// out\n        /* \"#utility.yul\":2517:2631   */\n    tag_64:\n      pop\n      jump\t// out\n        /* \"#utility.yul\":2637:3035   */\n    tag_65:\n        /* \"#utility.yul\":2796:2799   */\n      0x00\n        /* \"#utility.yul\":2817:2900   */\n      tag_106\n        /* \"#utility.yul\":2898:2899   */\n      0x00\n        /* \"#utility.yul\":2893:2896   */\n      dup4\n        /* \"#utility.yul\":2817:2900   */\n      tag_63\n      jump\t// in\n    tag_106:\n        /* \"#utility.yul\":2810:2900   */\n      swap2\n      pop\n        /* \"#utility.yul\":2909:3002   */\n      tag_107\n        /* \"#utility.yul\":2998:3001   */\n      dup3\n        /* \"#utility.yul\":2909:3002   */\n      tag_64\n      jump\t// in\n    tag_107:\n        /* \"#utility.yul\":3027:3028   */\n      0x00\n        /* \"#utility.yul\":3022:3025   */\n      dup3\n        /* \"#utility.yul\":3018:3029   */\n      add\n        /* \"#utility.yul\":3011:3029   */\n      swap1\n      pop\n        /* \"#utility.yul\":2637:3035   */\n      swap2\n      swap1\n      pop\n      jump\t// out\n        /* \"#utility.yul\":3041:3420   */\n    tag_28:\n        /* \"#utility.yul\":3225:3228   */\n      0x00\n        /* \"#utility.yul\":3247:3394   */\n      tag_109\n        /* \"#utility.yul\":3390:3393   */\n      dup3\n        /* \"#utility.yul\":3247:3394   */\n      tag_65\n      jump\t// in\n    tag_109:\n        /* \"#utility.yul\":3240:3394   */\n      swap2\n      pop\n        /* \"#utility.yul\":3411:3414   */\n      dup2\n        /* \"#utility.yul\":3404:3414   */\n      swap1\n      pop\n        /* \"#utility.yul\":3041:3420   */\n      swap2\n      swap1\n      pop\n      jump\t// out\n        /* \"#utility.yul\":3426:3595   */\n    tag_66:\n        /* \"#utility.yul\":3510:3521   */\n      0x00\n        /* \"#utility.yul\":3544:3550   */\n      dup3\n        /* \"#utility.yul\":3539:3542   */\n      dup3\n        /* \"#utility.yul\":3532:3551   */\n      mstore\n        /* \"#utility.yul\":3584:3588   */\n      0x20\n        /* \"#utility.yul\":3579:3582   */\n      dup3\n        /* \"#utility.yul\":3575:3589   */\n      add\n        /* \"#utility.yul\":3560:3589   */\n      swap1\n      pop\n        /* \"#utility.yul\":3426:3595   */\n      swap3\n      swap2\n      pop\n      pop\n      jump\t// out\n        /* \"#utility.yul\":3601:3771   */\n    tag_67:\n        /* \"#utility.yul\":3741:3763   */\n      0x4661696c656420746f2073656e64204574686572000000000000000000000000\n        /* \"#utility.yul\":3737:3738   */\n      0x00\n        /* \"#utility.yul\":3729:3735   */\n      dup3\n        /* \"#utility.yul\":3725:3739   */\n      add\n        /* \"#utility.yul\":3718:3764   */\n      mstore\n        /* \"#utility.yul\":3601:3771   */\n      pop\n      jump\t// out\n        /* \"#utility.yul\":3777:4143   */\n    tag_68:\n        /* \"#utility.yul\":3919:3922   */\n      0x00\n        /* \"#utility.yul\":3940:4007   */\n      tag_113\n        /* \"#utility.yul\":4004:4006   */\n      0x14\n        /* \"#utility.yul\":3999:4002   */\n      dup4\n        /* \"#utility.yul\":3940:4007   */\n      tag_66\n      jump\t// in\n    tag_113:\n        /* \"#utility.yul\":3933:4007   */\n      swap2\n      pop\n        /* \"#utility.yul\":4016:4109   */\n      tag_114\n        /* \"#utility.yul\":4105:4108   */\n      dup3\n        /* \"#utility.yul\":4016:4109   */\n      tag_67\n      jump\t// in\n    tag_114:\n        /* \"#utility.yul\":4134:4136   */\n      0x20\n        /* \"#utility.yul\":4129:4132   */\n      dup3\n        /* \"#utility.yul\":4125:4137   */\n      add\n        /* \"#utility.yul\":4118:4137   */\n      swap1\n      pop\n        /* \"#utility.yul\":3777:4143   */\n      swap2\n      swap1\n      pop\n      jump\t// out\n        /* \"#utility.yul\":4149:4568   */\n    tag_34:\n        /* \"#utility.yul\":4315:4319   */\n      0x00\n        /* \"#utility.yul\":4353:4355   */\n      0x20\n        /* \"#utility.yul\":4342:4351   */\n      dup3\n        /* \"#utility.yul\":4338:4356   */\n      add\n        /* \"#utility.yul\":4330:4356   */\n      swap1\n      pop\n        /* \"#utility.yul\":4402:4411   */\n      dup2\n        /* \"#utility.yul\":4396:4400   */\n      dup2\n        /* \"#utility.yul\":4392:4412   */\n      sub\n        /* \"#utility.yul\":4388:4389   */\n      0x00\n        /* \"#utility.yul\":4377:4386   */\n      dup4\n        /* \"#utility.yul\":4373:4390   */\n      add\n        /* \"#utility.yul\":4366:4413   */\n      mstore\n        /* \"#utility.yul\":4430:4561   */\n      tag_116\n        /* \"#utility.yul\":4556:4560   */\n      dup2\n        /* \"#utility.yul\":4430:4561   */\n      tag_68\n      jump\t// in\n    tag_116:\n        /* \"#utility.yul\":4422:4561   */\n      swap1\n      pop\n        /* \"#utility.yul\":4149:4568   */\n      swap2\n      swap1\n      pop\n      jump\t// out\n        /* \"#utility.yul\":4574:4754   */\n    tag_38:\n        /* \"#utility.yul\":4622:4699   */\n      0x4e487b7100000000000000000000000000000000000000000000000000000000\n        /* \"#utility.yul\":4619:4620   */\n      0x00\n        /* \"#utility.yul\":4612:4700   */\n      mstore\n        /* \"#utility.yul\":4719:4723   */\n      0x32\n        /* \"#utility.yul\":4716:4717   */\n      0x04\n        /* \"#utility.yul\":4709:4724   */\n      mstore\n        /* \"#utility.yul\":4743:4747   */\n      0x24\n        /* \"#utility.yul\":4740:4741   */\n      0x00\n        /* \"#utility.yul\":4733:4748   */\n      revert\n        /* \"#utility.yul\":4760:4933   */\n    tag_69:\n        /* \"#utility.yul\":4900:4925   */\n      0x6469646e742073656e6420656e6f756768206d6f6e6579000000000000000000\n        /* \"#utility.yul\":4896:4897   */\n      0x00\n        /* \"#utility.yul\":4888:4894   */\n      dup3\n        /* \"#utility.yul\":4884:4898   */\n      add\n        /* \"#utility.yul\":4877:4926   */\n      mstore\n        /* \"#utility.yul\":4760:4933   */\n      pop\n      jump\t// out\n        /* \"#utility.yul\":4939:5305   */\n    tag_70:\n        /* \"#utility.yul\":5081:5084   */\n      0x00\n        /* \"#utility.yul\":5102:5169   */\n      tag_120\n        /* \"#utility.yul\":5166:5168   */\n      0x17\n        /* \"#utility.yul\":5161:5164   */\n      dup4\n        /* \"#utility.yul\":5102:5169   */\n      tag_66\n      jump\t// in\n    tag_120:\n        /* \"#utility.yul\":5095:5169   */\n      swap2\n      pop\n        /* \"#utility.yul\":5178:5271   */\n      tag_121\n        /* \"#utility.yul\":5267:5270   */\n      dup3\n        /* \"#utility.yul\":5178:5271   */\n      tag_69\n      jump\t// in\n    tag_121:\n        /* \"#utility.yul\":5296:5298   */\n      0x20\n        /* \"#utility.yul\":5291:5294   */\n      dup3\n        /* \"#utility.yul\":5287:5299   */\n      add\n        /* \"#utility.yul\":5280:5299   */\n      swap1\n      pop\n        /* \"#utility.yul\":4939:5305   */\n      swap2\n      swap1\n      pop\n      jump\t// out\n        /* \"#utility.yul\":5311:5730   */\n    tag_43:\n        /* \"#utility.yul\":5477:5481   */\n      0x00\n        /* \"#utility.yul\":5515:5517   */\n      0x20\n        /* \"#utility.yul\":5504:5513   */\n      dup3\n        /* \"#utility.yul\":5500:5518   */\n      add\n        /* \"#utility.yul\":5492:5518   */\n      swap1\n      pop\n        /* \"#utility.yul\":5564:5573   */\n      dup2\n        /* \"#utility.yul\":5558:5562   */\n      dup2\n        /* \"#utility.yul\":5554:5574   */\n      sub\n        /* \"#utility.yul\":5550:5551   */\n      0x00\n        /* \"#utility.yul\":5539:5548   */\n      dup4\n        /* \"#utility.yul\":5535:5552   */\n      add\n        /* \"#utility.yul\":5528:5575   */\n      mstore\n        /* \"#utility.yul\":5592:5723   */\n      tag_123\n        /* \"#utility.yul\":5718:5722   */\n      dup2\n        /* \"#utility.yul\":5592:5723   */\n      tag_70\n      jump\t// in\n    tag_123:\n        /* \"#utility.yul\":5584:5723   */\n      swap1\n      pop\n        /* \"#utility.yul\":5311:5730   */\n      swap2\n      swap1\n      pop\n      jump\t// out\n        /* \"#utility.yul\":5736:5916   */\n    tag_71:\n        /* \"#utility.yul\":5784:5861   */\n      0x4e487b7100000000000000000000000000000000000000000000000000000000\n        /* \"#utility.yul\":5781:5782   */\n      0x00\n        /* \"#utility.yul\":5774:5862   */\n      mstore\n        /* \"#utility.yul\":5881:5885   */\n      0x11\n        /* \"#utility.yul\":5878:5879   */\n      0x04\n        /* \"#utility.yul\":5871:5886   */\n      mstore\n        /* \"#utility.yul\":5905:5909   */\n      0x24\n        /* \"#utility.yul\":5902:5903   */\n      0x00\n        /* \"#utility.yul\":5895:5910   */\n      revert\n        /* \"#utility.yul\":5922:6332   */\n    tag_51:\n        /* \"#utility.yul\":5962:5969   */\n      0x00\n        /* \"#utility.yul\":5985:6005   */\n      tag_126\n        /* \"#utility.yul\":6003:6004   */\n      dup3\n        /* \"#utility.yul\":5985:6005   */\n      tag_59\n      jump\t// in\n    tag_126:\n        /* \"#utility.yul\":5980:6005   */\n      swap2\n      pop\n        /* \"#utility.yul\":6019:6039   */\n      tag_127\n        /* \"#utility.yul\":6037:6038   */\n      dup4\n        /* \"#utility.yul\":6019:6039   */\n      tag_59\n      jump\t// in\n    tag_127:\n        /* \"#utility.yul\":6014:6039   */\n      swap3\n      pop\n        /* \"#utility.yul\":6074:6075   */\n      dup3\n        /* \"#utility.yul\":6071:6072   */\n      dup3\n        /* \"#utility.yul\":6067:6076   */\n      mul\n        /* \"#utility.yul\":6096:6126   */\n      tag_128\n        /* \"#utility.yul\":6114:6125   */\n      dup2\n        /* \"#utility.yul\":6096:6126   */\n      tag_59\n      jump\t// in\n    tag_128:\n        /* \"#utility.yul\":6085:6126   */\n      swap2\n      pop\n        /* \"#utility.yul\":6275:6276   */\n      dup3\n        /* \"#utility.yul\":6266:6273   */\n      dup3\n        /* \"#utility.yul\":6262:6277   */\n      div\n        /* \"#utility.yul\":6259:6260   */\n      dup5\n        /* \"#utility.yul\":6256:6278   */\n      eq\n        /* \"#utility.yul\":6236:6237   */\n      dup4\n        /* \"#utility.yul\":6229:6238   */\n      iszero\n        /* \"#utility.yul\":6209:6292   */\n      or\n        /* \"#utility.yul\":6186:6325   */\n      tag_129\n      jumpi\n        /* \"#utility.yul\":6305:6323   */\n      tag_130\n      tag_71\n      jump\t// in\n    tag_130:\n        /* \"#utility.yul\":6186:6325   */\n    tag_129:\n        /* \"#utility.yul\":5970:6332   */\n      pop\n        /* \"#utility.yul\":5922:6332   */\n      swap3\n      swap2\n      pop\n      pop\n      jump\t// out\n\n    auxdata: 0xa26469706673582212207c853ef191e6146c3493f1b9263c261edb2a13cd24169d33caadacff2b29406e64736f6c634300081a0033\n}\n",
				"bytecode": {
					"linkReferences": {},
					"object": "6080604052348015600e575f80fd5b50335f806101000a81548173ffffffffffffffffffffffffffffffffffffffff021916908373ffffffffffffffffffffffffffffffffffffffff1602179055506107118061005b5f395ff3fe60806040526004361061003e575f3560e01c80633ccfd60b146100425780638bd99c4f14610058578063b60d428814610094578063dc36b2b11461009e575b5f80fd5b34801561004d575f80fd5b506100566100da565b005b348015610063575f80fd5b5061007e6004803603810190610079919061048e565b610210565b60405161008b91906104db565b60405180910390f35b61009c610271565b005b3480156100a9575f80fd5b506100c460048036038101906100bf91906104f4565b6103d7565b6040516100d191906104db565b60405180910390f35b5f8054906101000a900473ffffffffffffffffffffffffffffffffffffffff1673ffffffffffffffffffffffffffffffffffffffff163373ffffffffffffffffffffffffffffffffffffffff1614610130575f80fd5b5f471161013b575f80fd5b5f805f9054906101000a900473ffffffffffffffffffffffffffffffffffffffff1690505f4790505f8273ffffffffffffffffffffffffffffffffffffffff16826040516101889061054c565b5f6040518083038185875af1925050503d805f81146101c2576040519150601f19603f3d011682016040523d82523d5f602084013e6101c7565b606091505b505090508061020b576040517f08c379a0000000000000000000000000000000000000000000000000000000008152600401610202906105ba565b60405180910390fd5b505050565b5f60025f8473ffffffffffffffffffffffffffffffffffffffff1673ffffffffffffffffffffffffffffffffffffffff1681526020019081526020015f2082815481106102605761025f6105d8565b5b905f5260205f200154905092915050565b671bc16d674ec800003410156102bc576040517f08c379a00000000000000000000000000000000000000000000000000000000081526004016102b39061064f565b60405180910390fd5b5f60405180606001604052803481526020013373ffffffffffffffffffffffffffffffffffffffff168152602001428152509050600181908060018154018082558091505060019003905f5260205f2090600302015f909190919091505f820151815f01556020820151816001015f6101000a81548173ffffffffffffffffffffffffffffffffffffffff021916908373ffffffffffffffffffffffffffffffffffffffff16021790555060408201518160020155505060025f3373ffffffffffffffffffffffffffffffffffffffff1673ffffffffffffffffffffffffffffffffffffffff1681526020019081526020015f2034908060018154018082558091505060019003905f5260205f20015f909190919091505550565b5f6103e1826103e8565b9050919050565b5f6002826103f6919061069a565b9050919050565b5f80fd5b5f73ffffffffffffffffffffffffffffffffffffffff82169050919050565b5f61042a82610401565b9050919050565b61043a81610420565b8114610444575f80fd5b50565b5f8135905061045581610431565b92915050565b5f819050919050565b61046d8161045b565b8114610477575f80fd5b50565b5f8135905061048881610464565b92915050565b5f80604083850312156104a4576104a36103fd565b5b5f6104b185828601610447565b92505060206104c28582860161047a565b9150509250929050565b6104d58161045b565b82525050565b5f6020820190506104ee5f8301846104cc565b92915050565b5f60208284031215610509576105086103fd565b5b5f6105168482850161047a565b91505092915050565b5f81905092915050565b50565b5f6105375f8361051f565b915061054282610529565b5f82019050919050565b5f6105568261052c565b9150819050919050565b5f82825260208201905092915050565b7f4661696c656420746f2073656e642045746865720000000000000000000000005f82015250565b5f6105a4601483610560565b91506105af82610570565b602082019050919050565b5f6020820190508181035f8301526105d181610598565b9050919050565b7f4e487b71000000000000000000000000000000000000000000000000000000005f52603260045260245ffd5b7f6469646e742073656e6420656e6f756768206d6f6e65790000000000000000005f82015250565b5f610639601783610560565b915061064482610605565b602082019050919050565b5f6020820190508181035f8301526106668161062d565b9050919050565b7f4e487b71000000000000000000000000000000000000000000000000000000005f52601160045260245ffd5b5f6106a48261045b565b91506106af8361045b565b92508282026106bd8161045b565b915082820484148315176106d4576106d361066d565b5b509291505056fea26469706673582212207c853ef191e6146c3493f1b9263c261edb2a13cd24169d33caadacff2b29406e64736f6c634300081a0033",
					"opcodes": "PUSH1 0x80 PUSH1 0x40 MSTORE CALLVALUE DUP1 ISZERO PUSH1 0xE JUMPI PUSH0 DUP1 REVERT JUMPDEST POP CALLER PUSH0 DUP1 PUSH2 0x100 EXP DUP2 SLOAD DUP2 PUSH20 0xFFFFFFFFFFFFFFFFFFFFFFFFFFFFFFFFFFFFFFFF MUL NOT AND SWAP1 DUP4 PUSH20 0xFFFFFFFFFFFFFFFFFFFFFFFFFFFFFFFFFFFFFFFF AND MUL OR SWAP1 SSTORE POP PUSH2 0x711 DUP1 PUSH2 0x5B PUSH0 CODECOPY PUSH0 RETURN INVALID PUSH1 0x80 PUSH1 0x40 MSTORE PUSH1 0x4 CALLDATASIZE LT PUSH2 0x3E JUMPI PUSH0 CALLDATALOAD PUSH1 0xE0 SHR DUP1 PUSH4 0x3CCFD60B EQ PUSH2 0x42 JUMPI DUP1 PUSH4 0x8BD99C4F EQ PUSH2 0x58 JUMPI DUP1 PUSH4 0xB60D4288 EQ PUSH2 0x94 JUMPI DUP1 PUSH4 0xDC36B2B1 EQ PUSH2 0x9E JUMPI JUMPDEST PUSH0 DUP1 REVERT JUMPDEST CALLVALUE DUP1 ISZERO PUSH2 0x4D JUMPI PUSH0 DUP1 REVERT JUMPDEST POP PUSH2 0x56 PUSH2 0xDA JUMP JUMPDEST STOP JUMPDEST CALLVALUE DUP1 ISZERO PUSH2 0x63 JUMPI PUSH0 DUP1 REVERT JUMPDEST POP PUSH2 0x7E PUSH1 0x4 DUP1 CALLDATASIZE SUB DUP2 ADD SWAP1 PUSH2 0x79 SWAP2 SWAP1 PUSH2 0x48E JUMP JUMPDEST PUSH2 0x210 JUMP JUMPDEST PUSH1 0x40 MLOAD PUSH2 0x8B SWAP2 SWAP1 PUSH2 0x4DB JUMP JUMPDEST PUSH1 0x40 MLOAD DUP1 SWAP2 SUB SWAP1 RETURN JUMPDEST PUSH2 0x9C PUSH2 0x271 JUMP JUMPDEST STOP JUMPDEST CALLVALUE DUP1 ISZERO PUSH2 0xA9 JUMPI PUSH0 DUP1 REVERT JUMPDEST POP PUSH2 0xC4 PUSH1 0x4 DUP1 CALLDATASIZE SUB DUP2 ADD SWAP1 PUSH2 0xBF SWAP2 SWAP1 PUSH2 0x4F4 JUMP JUMPDEST PUSH2 0x3D7 JUMP JUMPDEST PUSH1 0x40 MLOAD PUSH2 0xD1 SWAP2 SWAP1 PUSH2 0x4DB JUMP JUMPDEST PUSH1 0x40 MLOAD DUP1 SWAP2 SUB SWAP1 RETURN JUMPDEST PUSH0 DUP1 SLOAD SWAP1 PUSH2 0x100 EXP SWAP1 DIV PUSH20 0xFFFFFFFFFFFFFFFFFFFFFFFFFFFFFFFFFFFFFFFF AND PUSH20 0xFFFFFFFFFFFFFFFFFFFFFFFFFFFFFFFFFFFFFFFF AND CALLER PUSH20 0xFFFFFFFFFFFFFFFFFFFFFFFFFFFFFFFFFFFFFFFF AND EQ PUSH2 0x130 JUMPI PUSH0 DUP1 REVERT JUMPDEST PUSH0 SELFBALANCE GT PUSH2 0x13B JUMPI PUSH0 DUP1 REVERT JUMPDEST PUSH0 DUP1 PUSH0 SWAP1 SLOAD SWAP1 PUSH2 0x100 EXP SWAP1 DIV PUSH20 0xFFFFFFFFFFFFFFFFFFFFFFFFFFFFFFFFFFFFFFFF AND SWAP1 POP PUSH0 SELFBALANCE SWAP1 POP PUSH0 DUP3 PUSH20 0xFFFFFFFFFFFFFFFFFFFFFFFFFFFFFFFFFFFFFFFF AND DUP3 PUSH1 0x40 MLOAD PUSH2 0x188 SWAP1 PUSH2 0x54C JUMP JUMPDEST PUSH0 PUSH1 0x40 MLOAD DUP1 DUP4 SUB DUP2 DUP6 DUP8 GAS CALL SWAP3 POP POP POP RETURNDATASIZE DUP1 PUSH0 DUP2 EQ PUSH2 0x1C2 JUMPI PUSH1 0x40 MLOAD SWAP2 POP PUSH1 0x1F NOT PUSH1 0x3F RETURNDATASIZE ADD AND DUP3 ADD PUSH1 0x40 MSTORE RETURNDATASIZE DUP3 MSTORE RETURNDATASIZE PUSH0 PUSH1 0x20 DUP5 ADD RETURNDATACOPY PUSH2 0x1C7 JUMP JUMPDEST PUSH1 0x60 SWAP2 POP JUMPDEST POP POP SWAP1 POP DUP1 PUSH2 0x20B JUMPI PUSH1 0x40 MLOAD PUSH32 0x8C379A000000000000000000000000000000000000000000000000000000000 DUP2 MSTORE PUSH1 0x4 ADD PUSH2 0x202 SWAP1 PUSH2 0x5BA JUMP JUMPDEST PUSH1 0x40 MLOAD DUP1 SWAP2 SUB SWAP1 REVERT JUMPDEST POP POP POP JUMP JUMPDEST PUSH0 PUSH1 0x2 PUSH0 DUP5 PUSH20 0xFFFFFFFFFFFFFFFFFFFFFFFFFFFFFFFFFFFFFFFF AND PUSH20 0xFFFFFFFFFFFFFFFFFFFFFFFFFFFFFFFFFFFFFFFF AND DUP2 MSTORE PUSH1 0x20 ADD SWAP1 DUP2 MSTORE PUSH1 0x20 ADD PUSH0 KECCAK256 DUP3 DUP2 SLOAD DUP2 LT PUSH2 0x260 JUMPI PUSH2 0x25F PUSH2 0x5D8 JUMP JUMPDEST JUMPDEST SWAP1 PUSH0 MSTORE PUSH1 0x20 PUSH0 KECCAK256 ADD SLOAD SWAP1 POP SWAP3 SWAP2 POP POP JUMP JUMPDEST PUSH8 0x1BC16D674EC80000 CALLVALUE LT ISZERO PUSH2 0x2BC JUMPI PUSH1 0x40 MLOAD PUSH32 0x8C379A000000000000000000000000000000000000000000000000000000000 DUP2 MSTORE PUSH1 0x4 ADD PUSH2 0x2B3 SWAP1 PUSH2 0x64F JUMP JUMPDEST PUSH1 0x40 MLOAD DUP1 SWAP2 SUB SWAP1 REVERT JUMPDEST PUSH0 PUSH1 0x40 MLOAD DUP1 PUSH1 0x60 ADD PUSH1 0x40 MSTORE DUP1 CALLVALUE DUP2 MSTORE PUSH1 0x20 ADD CALLER PUSH20 0xFFFFFFFFFFFFFFFFFFFFFFFFFFFFFFFFFFFFFFFF AND DUP2 MSTORE PUSH1 0x20 ADD TIMESTAMP DUP2 MSTORE POP SWAP1 POP PUSH1 0x1 DUP2 SWAP1 DUP1 PUSH1 0x1 DUP2 SLOAD ADD DUP1 DUP3 SSTORE DUP1 SWAP2 POP POP PUSH1 0x1 SWAP1 SUB SWAP1 PUSH0 MSTORE PUSH1 0x20 PUSH0 KECCAK256 SWAP1 PUSH1 0x3 MUL ADD PUSH0 SWAP1 SWAP2 SWAP1 SWAP2 SWAP1 SWAP2 POP PUSH0 DUP3 ADD MLOAD DUP2 PUSH0 ADD SSTORE PUSH1 0x20 DUP3 ADD MLOAD DUP2 PUSH1 0x1 ADD PUSH0 PUSH2 0x100 EXP DUP2 SLOAD DUP2 PUSH20 0xFFFFFFFFFFFFFFFFFFFFFFFFFFFFFFFFFFFFFFFF MUL NOT AND SWAP1 DUP4 PUSH20 0xFFFFFFFFFFFFFFFFFFFFFFFFFFFFFFFFFFFFFFFF AND MUL OR SWAP1 SSTORE POP PUSH1 0x40 DUP3 ADD MLOAD DUP2 PUSH1 0x2 ADD SSTORE POP POP PUSH1 0x2 PUSH0 CALLER PUSH20 0xFFFFFFFFFFFFFFFFFFFFFFFFFFFFFFFFFFFFFFFF AND PUSH20 0xFFFFFFFFFFFFFFFFFFFFFFFFFFFFFFFFFFFFFFFF AND DUP2 MSTORE PUSH1 0x20 ADD SWAP1 DUP2 MSTORE PUSH1 0x20 ADD PUSH0 KECCAK256 CALLVALUE SWAP1 DUP1 PUSH1 0x1 DUP2 SLOAD ADD DUP1 DUP3 SSTORE DUP1 SWAP2 POP POP PUSH1 0x1 SWAP1 SUB SWAP1 PUSH0 MSTORE PUSH1 0x20 PUSH0 KECCAK256 ADD PUSH0 SWAP1 SWAP2 SWAP1 SWAP2 SWAP1 SWAP2 POP SSTORE POP JUMP JUMPDEST PUSH0 PUSH2 0x3E1 DUP3 PUSH2 0x3E8 JUMP JUMPDEST SWAP1 POP SWAP2 SWAP1 POP JUMP JUMPDEST PUSH0 PUSH1 0x2 DUP3 PUSH2 0x3F6 SWAP2 SWAP1 PUSH2 0x69A JUMP JUMPDEST SWAP1 POP SWAP2 SWAP1 POP JUMP JUMPDEST PUSH0 DUP1 REVERT JUMPDEST PUSH0 PUSH20 0xFFFFFFFFFFFFFFFFFFFFFFFFFFFFFFFFFFFFFFFF DUP3 AND SWAP1 POP SWAP2 SWAP1 POP JUMP JUMPDEST PUSH0 PUSH2 0x42A DUP3 PUSH2 0x401 JUMP JUMPDEST SWAP1 POP SWAP2 SWAP1 POP JUMP JUMPDEST PUSH2 0x43A DUP2 PUSH2 0x420 JUMP JUMPDEST DUP2 EQ PUSH2 0x444 JUMPI PUSH0 DUP1 REVERT JUMPDEST POP JUMP JUMPDEST PUSH0 DUP2 CALLDATALOAD SWAP1 POP PUSH2 0x455 DUP2 PUSH2 0x431 JUMP JUMPDEST SWAP3 SWAP2 POP POP JUMP JUMPDEST PUSH0 DUP2 SWAP1 POP SWAP2 SWAP1 POP JUMP JUMPDEST PUSH2 0x46D DUP2 PUSH2 0x45B JUMP JUMPDEST DUP2 EQ PUSH2 0x477 JUMPI PUSH0 DUP1 REVERT JUMPDEST POP JUMP JUMPDEST PUSH0 DUP2 CALLDATALOAD SWAP1 POP PUSH2 0x488 DUP2 PUSH2 0x464 JUMP JUMPDEST SWAP3 SWAP2 POP POP JUMP JUMPDEST PUSH0 DUP1 PUSH1 0x40 DUP4 DUP6 SUB SLT ISZERO PUSH2 0x4A4 JUMPI PUSH2 0x4A3 PUSH2 0x3FD JUMP JUMPDEST JUMPDEST PUSH0 PUSH2 0x4B1 DUP6 DUP3 DUP7 ADD PUSH2 0x447 JUMP JUMPDEST SWAP3 POP POP PUSH1 0x20 PUSH2 0x4C2 DUP6 DUP3 DUP7 ADD PUSH2 0x47A JUMP JUMPDEST SWAP2 POP POP SWAP3 POP SWAP3 SWAP1 POP JUMP JUMPDEST PUSH2 0x4D5 DUP2 PUSH2 0x45B JUMP JUMPDEST DUP3 MSTORE POP POP JUMP JUMPDEST PUSH0 PUSH1 0x20 DUP3 ADD SWAP1 POP PUSH2 0x4EE PUSH0 DUP4 ADD DUP5 PUSH2 0x4CC JUMP JUMPDEST SWAP3 SWAP2 POP POP JUMP JUMPDEST PUSH0 PUSH1 0x20 DUP3 DUP5 SUB SLT ISZERO PUSH2 0x509 JUMPI PUSH2 0x508 PUSH2 0x3FD JUMP JUMPDEST JUMPDEST PUSH0 PUSH2 0x516 DUP5 DUP3 DUP6 ADD PUSH2 0x47A JUMP JUMPDEST SWAP2 POP POP SWAP3 SWAP2 POP POP JUMP JUMPDEST PUSH0 DUP2 SWAP1 POP SWAP3 SWAP2 POP POP JUMP JUMPDEST POP JUMP JUMPDEST PUSH0 PUSH2 0x537 PUSH0 DUP4 PUSH2 0x51F JUMP JUMPDEST SWAP2 POP PUSH2 0x542 DUP3 PUSH2 0x529 JUMP JUMPDEST PUSH0 DUP3 ADD SWAP1 POP SWAP2 SWAP1 POP JUMP JUMPDEST PUSH0 PUSH2 0x556 DUP3 PUSH2 0x52C JUMP JUMPDEST SWAP2 POP DUP2 SWAP1 POP SWAP2 SWAP1 POP JUMP JUMPDEST PUSH0 DUP3 DUP3 MSTORE PUSH1 0x20 DUP3 ADD SWAP1 POP SWAP3 SWAP2 POP POP JUMP JUMPDEST PUSH32 0x4661696C656420746F2073656E64204574686572000000000000000000000000 PUSH0 DUP3 ADD MSTORE POP JUMP JUMPDEST PUSH0 PUSH2 0x5A4 PUSH1 0x14 DUP4 PUSH2 0x560 JUMP JUMPDEST SWAP2 POP PUSH2 0x5AF DUP3 PUSH2 0x570 JUMP JUMPDEST PUSH1 0x20 DUP3 ADD SWAP1 POP SWAP2 SWAP1 POP JUMP JUMPDEST PUSH0 PUSH1 0x20 DUP3 ADD SWAP1 POP DUP2 DUP2 SUB PUSH0 DUP4 ADD MSTORE PUSH2 0x5D1 DUP2 PUSH2 0x598 JUMP JUMPDEST SWAP1 POP SWAP2 SWAP1 POP JUMP JUMPDEST PUSH32 0x4E487B7100000000000000000000000000000000000000000000000000000000 PUSH0 MSTORE PUSH1 0x32 PUSH1 0x4 MSTORE PUSH1 0x24 PUSH0 REVERT JUMPDEST PUSH32 0x6469646E742073656E6420656E6F756768206D6F6E6579000000000000000000 PUSH0 DUP3 ADD MSTORE POP JUMP JUMPDEST PUSH0 PUSH2 0x639 PUSH1 0x17 DUP4 PUSH2 0x560 JUMP JUMPDEST SWAP2 POP PUSH2 0x644 DUP3 PUSH2 0x605 JUMP JUMPDEST PUSH1 0x20 DUP3 ADD SWAP1 POP SWAP2 SWAP1 POP JUMP JUMPDEST PUSH0 PUSH1 0x20 DUP3 ADD SWAP1 POP DUP2 DUP2 SUB PUSH0 DUP4 ADD MSTORE PUSH2 0x666 DUP2 PUSH2 0x62D JUMP JUMPDEST SWAP1 POP SWAP2 SWAP1 POP JUMP JUMPDEST PUSH32 0x4E487B7100000000000000000000000000000000000000000000000000000000 PUSH0 MSTORE PUSH1 0x11 PUSH1 0x4 MSTORE PUSH1 0x24 PUSH0 REVERT JUMPDEST PUSH0 PUSH2 0x6A4 DUP3 PUSH2 0x45B JUMP JUMPDEST SWAP2 POP PUSH2 0x6AF DUP4 PUSH2 0x45B JUMP JUMPDEST SWAP3 POP DUP3 DUP3 MUL PUSH2 0x6BD DUP2 PUSH2 0x45B JUMP JUMPDEST SWAP2 POP DUP3 DUP3 DIV DUP5 EQ DUP4 ISZERO OR PUSH2 0x6D4 JUMPI PUSH2 0x6D3 PUSH2 0x66D JUMP JUMPDEST JUMPDEST POP SWAP3 SWAP2 POP POP JUMP INVALID LOG2 PUSH5 0x6970667358 0x22 SLT KECCAK256 PUSH29 0x853EF191E6146C3493F1B9263C261EDB2A13CD24169D33CAADACFF2B29 BLOCKHASH PUSH15 0x64736F6C634300081A003300000000 "
				},
				"gasEstimates": {
					"creation": {
						"codeDepositCost": "361800",
						"executionCost": "24662",
						"totalCost": "386462"
					},
					"external": {
						"fund()": "139617",
						"getFund(address,uint256)": "infinite",
						"getMyNumber(uint256)": "infinite",
						"withdraw()": "infinite"
					}
				},
				"methodIdentifiers": {
					"fund()": "b60d4288",
					"getFund(address,uint256)": "8bd99c4f",
					"getMyNumber(uint256)": "dc36b2b1",
					"withdraw()": "3ccfd60b"
				}
			},
			"storageLayout": {
				"storage": [
					{
						"astId": 5,
						"contract": "fundMe/FundMe.sol:FundMe",
						"label": "owner",
						"offset": 0,
						"slot": "0",
						"type": "t_address"
					},
					{
						"astId": 28,
						"contract": "fundMe/FundMe.sol:FundMe",
						"label": "infopay",
						"offset": 0,
						"slot": "1",
						"type": "t_array(t_struct(InfoPay)24_storage)dyn_storage"
					},
					{
						"astId": 33,
						"contract": "fundMe/FundMe.sol:FundMe",
						"label": "balances",
						"offset": 0,
						"slot": "2",
						"type": "t_mapping(t_address,t_array(t_uint256)dyn_storage)"
					}
				],
				"types": {
					"t_address": {
						"encoding": "inplace",
						"label": "address",
						"numberOfBytes": "20"
					},
					"t_array(t_struct(InfoPay)24_storage)dyn_storage": {
						"base": "t_struct(InfoPay)24_storage",
						"encoding": "dynamic_array",
						"label": "struct FundMe.InfoPay[]",
						"numberOfBytes": "32"
					},
					"t_array(t_uint256)dyn_storage": {
						"base": "t_uint256",
						"encoding": "dynamic_array",
						"label": "uint256[]",
						"numberOfBytes": "32"
					},
					"t_mapping(t_address,t_array(t_uint256)dyn_storage)": {
						"encoding": "mapping",
						"key": "t_address",
						"label": "mapping(address => uint256[])",
						"numberOfBytes": "32",
						"value": "t_array(t_uint256)dyn_storage"
					},
					"t_struct(InfoPay)24_storage": {
						"encoding": "inplace",
						"label": "struct FundMe.InfoPay",
						"members": [
							{
								"astId": 19,
								"contract": "fundMe/FundMe.sol:FundMe",
								"label": "amount",
								"offset": 0,
								"slot": "0",
								"type": "t_uint256"
							},
							{
								"astId": 21,
								"contract": "fundMe/FundMe.sol:FundMe",
								"label": "sendor",
								"offset": 0,
								"slot": "1",
								"type": "t_address"
							},
							{
								"astId": 23,
								"contract": "fundMe/FundMe.sol:FundMe",
								"label": "timestamp",
								"offset": 0,
								"slot": "2",
								"type": "t_uint256"
							}
						],
						"numberOfBytes": "96"
					},
					"t_uint256": {
						"encoding": "inplace",
						"label": "uint256",
						"numberOfBytes": "32"
					}
				}
			},
			"userdoc": {
				"kind": "user",
				"methods": {},
				"version": 1
			}
		}
	}
}